{
  "contractName": "A",
  "abi": [
    {
      "inputs": [],
      "name": "owner",
      "outputs": [
        {
          "internalType": "address",
          "name": "",
          "type": "address"
        }
      ],
      "stateMutability": "view",
      "type": "function"
    },
    {
      "inputs": [],
      "name": "x",
      "outputs": [
        {
          "internalType": "int256",
          "name": "",
          "type": "int256"
        }
      ],
      "stateMutability": "view",
      "type": "function"
    },
    {
      "inputs": [],
      "name": "y",
      "outputs": [
        {
          "internalType": "int256",
          "name": "",
          "type": "int256"
        }
      ],
      "stateMutability": "view",
      "type": "function"
    },
    {
      "inputs": [
        {
          "internalType": "int256",
          "name": "_x",
          "type": "int256"
        }
      ],
      "name": "setX",
      "outputs": [],
      "stateMutability": "nonpayable",
      "type": "function"
    }
  ],
  "bytecode": "0x6080604052600360025534801561001557600080fd5b50600560008190555033600160006101000a81548173ffffffffffffffffffffffffffffffffffffffff021916908373ffffffffffffffffffffffffffffffffffffffff1602179055506102278061006e6000396000f3fe608060405234801561001057600080fd5b506004361061004c5760003560e01c80630c55699c146100515780638da5cb5b1461006f578063a0fc49941461008d578063a56dfe4a146100a9575b600080fd5b6100596100c7565b604051610066919061011c565b60405180910390f35b6100776100cd565b6040516100849190610178565b60405180910390f35b6100a760048036038101906100a291906101c4565b6100f3565b005b6100b16100fd565b6040516100be919061011c565b60405180910390f35b60005481565b600160009054906101000a900473ffffffffffffffffffffffffffffffffffffffff1681565b8060008190555050565b60025481565b6000819050919050565b61011681610103565b82525050565b6000602082019050610131600083018461010d565b92915050565b600073ffffffffffffffffffffffffffffffffffffffff82169050919050565b600061016282610137565b9050919050565b61017281610157565b82525050565b600060208201905061018d6000830184610169565b92915050565b600080fd5b6101a181610103565b81146101ac57600080fd5b50565b6000813590506101be81610198565b92915050565b6000602082840312156101da576101d9610193565b5b60006101e8848285016101af565b9150509291505056fea264697066735822122025eb2fa8d3890ad59d8dc6bab10fa48105a8fa02207fbbf6b0be83da8ef5d9cc64736f6c634300080d0033",
  "immutableReferences": {},
  "source": "// SPDX-License-Identifier: GPL-3.0\r\n\r\npragma solidity >=0.5.0 <0.9.0;\r\n\r\nabstract contract BaseContract {\r\n    int256 public x;\r\n    address public owner;\r\n\r\n    constructor() {\r\n        x = 5;\r\n        owner = msg.sender;\r\n    }\r\n\r\n    function setX(int256 _x) public virtual;\r\n}\r\n\r\ninterface baseInterface {\r\n    function setX(int256 _x) external;\r\n}\r\n\r\ncontract A is BaseContract {\r\n    int256 public y = 3;\r\n\r\n    function setX(int256 _x) public override {\r\n        x = _x;\r\n    }\r\n}\r\n",
  "sourcePath": "C:\\Users\\b_bri\\Documents\\solidity\\erc20\\src\\contracts\\inheritance.sol",
  "compiler": {
    "name": "solc",
    "version": "0.8.13+commit.abaa5c0e.Emscripten.clang"
  },
  "schemaVersion": "3.4.6",
  "updatedAt": "2022-03-31T03:11:53.032Z",
  "devdoc": {
    "kind": "dev",
    "methods": {},
    "version": 1
  },
  "userdoc": {
    "kind": "user",
    "methods": {},
    "version": 1
  }
}